:020000040000FA
:1000000001288501860183160430850086018B0155
:10001000831207309F000614352035200610861401
:100020003520352035203520861006153520352021
:100030003520352035203520061186153520352010
:1000400035203520352035203520352086110616FF
:1000500035203520352035203520352035203520F8
:100060003520352006120B280519DC30A20083301C
:10007000A100A20B3E288616861208000830A000B8
:1000800005194828A10B45283728A00B45283E28EC
:10009000061A5128861955280619592886185D28E8
:1000A00061286720061286155528672086110615D7
:1000B00059286720061186145D28672086100614CB
:1000C0006128672067206720672067200B2803309E
:1000D000A2000330A100A20B702886168612080029
:1000E0000830A000A10B75286928A00B752870287E
:0200F000080006
:02400E00103F61
:00000001FF
